:020000040800F2
:1000000048460020690200088523000809200008EE
:100010008D2200085D050008152F00080000000073
:10002000000000000000000000000000A90100081E
:10003000110600080000000005020008012C00085D
:10004000830200088302000883020008830200087C
:10005000830200088302000883020008830200086C
:10006000830200088302000883020008830200085C
:10007000830200088302000883020008830200084C
:100080008302000883020008290400080000000021
:1000900000000000000000000000000083020008D3
:1000A000830200088302000883020008830200081C
:1000B000D12C000883020008DD2C00088302000810
:1000C00083020008830200088302000883020008FC
:1000D0008302000883020008830200080000000079
:1000E0008302000883020008830200080000000069
:1000F0000000000000000000000000008302000873
:100100000000000083020008830200088302000848
:1001100000000000000000000000000000000000DF
:1001200061050008830200088302000883020008BA
:100130008302000800000000000000000000000032
:100140000000000000000000000000008302000822
:10015000830200088302000883020008830200086B
:100160008302000883020008000000000000000075
:10017000000000000000000000000000000000007F
:1001800000000000830200080000000000000000E2
:1001900083020008DFF80CD000F0ECF800480047BC
:1001A000552F0008484600202C4B19680868B0E815
:1001B000F04F80F30988BFF36F8F4FF0000080F39A
:1001C000118870470000000008480068006880F34C
:1001D00008884FF0000080F3148862B661B6BFF360
:1001E0004F8FBFF36F8F00DF00BF00BF08ED00E04F
:1001F000DFF80C00016841F470010160704700BF36
:1002000088ED00E0EFF30980BFF36F8F134B1A689E
:100210001EF0100F08BF20ED108A20E9F04F10608B
:1002200009B44FF0500080F31188BFF34F8FBFF334
:100230006F8F03F027FC4FF0000080F3118809BC9A
:1002400019680868B0E8F04F1EF0100F08BFB0EC56
:10025000108A80F30988BFF36F8F70473000002049
:10026000EFF30580704700000648804706480047C6
:10027000FEE7FEE7FEE7FEE7FEE7FEE7FEE7FEE756
:10028000FEE7FEE7B52C0008950100082DE9F05FB8
:100290000546002092469B468846064681464024F5
:1002A0001BE0284641464746224600F053F8534695
:1002B0005A46C01A914110D311461846224600F002
:1002C0003AF82D1A67EB01084F462246012000211B
:1002D00000F031F817EB00094E41201EA4F1010493
:1002E000DFDC484631462A464346BDE8F09F40EAF7
:1002F00001039B0703D009E008C9121F08C0042AA4
:10030000FAD203E011F8013B00F8013B521EF9D28A
:100310007047D2B201E000F8012B491EFBD27047B2
:100320000022F6E710B513460A4604461946FFF7C1
:10033000F0FF204610BD202A04DB203A00FA02F12B
:10034000002070479140C2F1200320FA03F31943C3
:1003500090407047202A04DB203A21FA02F0002165
:10036000704721FA02F3D040C2F1200291400843C5
:1003700019467047064C074D06E0E06840F001035F
:1003800094E8070098471034AC42F6D3FFF706FF15
:100390005C4300087C43000810B50146806B026C8A
:1003A00012F0500F05D0026CD20626D500F007FAE5
:1003B00010BD016C41F40071016401688A6812F09B
:1003C000405F17D1027EAAB9CA6A12F4700F02D038
:1003D0008A6852050ED44A6822F020024A60016CF5
:1003E00021F480710164016CC90403D4016C41F0F3
:1003F0000101016400F0CAF910BD806BC26CBDE858
:1004000010400846104710B5806B40210164416CD4
:1004100041F00401416400F0D2F910BD10B5806BC9
:1004200000F0CCF910BD0000014800F0C9B900008F
:1004300090000020464910B54A6822F440324A60D4
:100440004A6843681A434A6001684A6822F4807225
:100450004A6001684A68036942EA03224A60016807
:100460004A6822F040724A6001684A6883681A4309
:100470004A6001688A6822F400628A6001688A68BA
:10048000C3681A438A60816A6FF07062D142016862
:100490008A6822F070628A6001688A680CD0836A78
:1004A0001A438A6001688A6822F040528A600168B3
:1004B0008A68C36A1A4301E022F040528A600168E8
:1004C0008A6822F002028A6001688A68037E42EA32
:1004D00043028A6090F82010002901684A680FD012
:1004E00042F400624A6001684A6822F460424A604D
:1004F00001684A68174C436A04EB43331A4301E02E
:1005000022F400624A600168CA6A22F47002CA6278
:100510000168CA6A838B104C04EB03531A43CA6206
:1005200001688A6822F400728A6001688A6890F81B
:10053000303042EA43228A6001688A6822F480628D
:100540008A6001688A68406942EA8020886010BD3C
:100550000023014000E0FFFF0000F0FFFEE7000085
:10056000014800F0CBBA0000740200200168182393
:10057000CAB2103AB2FBF3F2054B6FF30901032A3A
:100580009B5CC36500D9091D816508467047000062
:10059000FC42000810B5014600208B698A6A4FF0C2
:1005A000C07453B1B3F5005F15D072B1012A0CD0FD
:1005B000022A0AD0032A09D104E01AB1012A06D07E
:1005C000022A03D1C96AC90100D5012010BDC96A38
:1005D000A142FAD010BD002AF7D0012AF2D0022A97
:1005E000F3D0032AF3D010BD30B50468256825F494
:1005F00080252560046863608368402B036803D00E
:1006000099600068C26030BD9A600068C16030BD0A
:1006100070470000084910B50A68D062C8600846F3
:1006200001F020FB4FF0FF31012003F025F8BDE879
:100630001040014801F027BBF401002070477047CB
:1006400078B50024009490F83C20012A19D00122AA
:1006500080F83C200A6807230568092A13D9EE6848
:100660000A3A02EB420293409E43EE600B788A689E
:100670000A3B03EB43039A400368DD682A43DA60D0
:1006800010E0022078BD2E6902EB420293409E43A7
:100690002E610B788A6803EB43039A4003681D6957
:1006A0002A431A614A681F23072A13D205686E6B12
:1006B000521E02EB820293409E436E630B790A88BE
:1006C0005B1E92B203EB83039A4003685D6B2A437F
:1006D0005A6327E005680D2A12D22E6BD21F02EB57
:1006E000820293409E432E630B790A88DB1F92B2ED
:1006F00003EB83039A4003681D6B2A431A6311E0DE
:10070000EE6A0D3A02EB820293409E43EE620B7951
:100710000A880D3B92B203EB83039A400368DD6ABB
:100720002A43DA62164B0568144A9D4206D10D68C9
:10073000122D03D1556845F48005556005689D422A
:1007400018D10B68102B01D0112B13D1536843F42F
:1007500000035360096810290CD10A490A4A096844
:10076000B1FBF2F101EB8101490000E0491E00916B
:100770000029FBD180F83C40002078BD00230140D7
:10078000002001402C00002040420F0008B500204E
:10079000009008486946806803F0C4F80098002873
:1007A00007D005494FF080500860BFF34F8FBFF36B
:1007B0006F8F08BD0000002004ED00E07047704717
:1007C00070B50446006801684268C1F34001C2F395
:1007D000401251B34AB3216CC90603D4216C41F4D1
:1007E00000712164816811F0405F17D1217EA9B9A1
:1007F000C16A11F4700F02D0816849050ED44168B6
:1008000021F020014160206C20F480702064206C75
:10081000C00403D4206C40F0010020642046FFF7A0
:10082000B5FF21686FF01200086020680168426817
:10083000C1F38001C2F3C01289B382B3216CC9062F
:1008400003D4216C41F400512164816811F4401FEC
:100850001ED1816B11F4401F02D08168490517D465
:100860004168490514D4816811F0405F10D1217EA0
:1008700071B9416821F080014160206C20F4805002
:100880002064206CC00503D4206C40F0010020647B
:100890002046FFF7D4FE21686FF00C000860206846
:1008A0000168426811F0010FC2F380120ED06AB1E4
:1008B0000068C0070AD0206C40F4803020642046D5
:1008C00000F046F821686FF00100086020680168B8
:1008D0004268C1F34011C2F3806200290DD0002AA2
:1008E0000BD0616C41F0020161646FF0200505607E
:1008F0002046FFF764FF2068056070BD70B50400F6
:100900004FF0000503D0206C002610B107E0012055
:1009100070BD204600F01EF8666484F83C60206CD0
:10092000C00610D4206C20F4885040F002002064EF
:100930002046FFF77FFD6664206C20F0020040F047
:100940000100206400E0012584F83C60284670BD69
:100950007047000070B586B0064614216846FFF760
:10096000DFFC2149306888423CD1204800250168DD
:1009700041F480710160006800F4807005901B48AC
:100980001438016841F0010101600068694600F017
:1009900001000590D32000900320CDE90105144803
:1009A00000F030FA144C1348C4E900050015A560A6
:1009B000C4E90350400060618000A0614011C4E9B7
:1009C00007052046656200F069F908B1FFF736FEB9
:1009D000B463002205211220A66300F075FB1220EB
:1009E00000F064FB06B070BD0020014044380240B6
:1009F000000002401064024074020020F8B50E4668
:100A000000210446009190F83C00012807D0012005
:100A100084F83C0020688368DB0702D011E00220E4
:100A2000F8BD836843F0010383602D482D4B0068B7
:100A3000B0FBF3F000EB400000E0401E0090002807
:100A4000FBD120688368DB0748D0236C40F2016546
:100A5000AB4343F4807323644068400505D5206CA4
:100A600020F4005040F480502064206CC00404D571
:100A7000606C20F00600606400E0616484F83C1063
:100A8000A16B1A48184DC863A16B19480864A16B83
:100A90001848C86421686FF0220008602068416827
:100AA00041F0806141602068816841F4807181601B
:100AB0002168134632464C31A06B00F059F9686842
:100AC000C006206802D00C49884207D1816811F025
:100AD000405F03D1816841F0804181600020F8BD12
:100AE0002C00002040420F00002301409903000821
:100AF0001D04000807040008002001402DE9F84308
:100B000004464FF00009CDF8009063484FF41651A9
:100B1000A56D0068B0FBF1F72E6894F85C10082012
:100B200000FA01F131420FD021680A6852070BD553
:100B30000A6822F004020A6094F85C108840A860F9
:100B4000606D40F00100606594F85C104FF00108A2
:100B500008FA01F0304208D021684969090604D535
:100B6000A860606D40F00200606594F85C1004209D
:100B70008840304208D021680968890704D5A860F8
:100B8000606D40F00400606594F85C1010208840AF
:100B9000304218D021680968090714D5A860206878
:100BA0000168490304D50068000308D5A16C07E07B
:100BB0000168C90503D4016821F008010160216CB6
:100BC00009B12046884794F85C10202088403042C4
:100BD00031D021680968C9062DD5A86094F8350080
:100BE00005282068016806D0490347D5006800033E
:100BF0001DD4616C1CE021F0160101602068416980
:100C000021F080014161206C08B9A06C20B12068FE
:100C1000016821F00801016094F85C103F208840D1
:100C2000A86084F8349084F83580216D1FE0E16B72
:100C300009B120468847606D00282BD0606DC00741
:100C400014D0052084F835002068016821F00101E6
:100C500001600098401C0090B84203D820680068EA
:100C6000C007F6D184F8349084F83580E16C00290F
:100C700010D001B02046BDE8F04308470168C9051F
:100C8000D5D4016821F01001016084F8349084F813
:100C90003580CCE7BDE8F8832C0000202DE9F04139
:100CA000044600F085F906465CB1002584F834500E
:100CB000022084F835002068016821F001010160FC
:100CC0000DE00120BDE8F08100F072F9801B0528DD
:100CD00005D920206065032084F83500F2E72068FC
:100CE0000068C007F0D12268116820480140D4E9AB
:100CF00001031843D4E903363343184363691843A7
:100D0000A3691843E3691843236A18430843616AD7
:100D1000042903D1D4E90B13194308431060206858
:100D20004069666A20F0070130460E430127042817
:100D30000CD1A06A0643E06A40B12046FFF72AFCC6
:100D400020B14020606584F83570BAE720684661BC
:100D50002046FFF70BFC94F85C203F219140816016
:100D6000656584F835700020ACE700003F8010F026
:100D70002DE9F0410446866D90F8340000250128E5
:100D80000DD0012084F8340094F835700020012F34
:100D900007D084F8340002252846BDE8F0810220FF
:100DA000FBE7022784F8357060652046FFF71CFCDE
:100DB00094F85C103F208840B0602068016841F0E2
:100DC00016010160206C20B12068016841F0080123
:100DD00001602068016841F001010160DCE700006A
:100DE00070B5044600F0E4F80546601C02D00448E3
:100DF0000078044400F0DCF8401BA042FAD370BD38
:100E0000200000202DE9F84F00224FF001080325B3
:100E10004FF00F0E0B6808FA02F42340A34271D181
:100E20004E68012E05D0022E03D0112E01D0122EB5
:100E300015D18668570005FA07FC26EA0C06D1F89A
:100E40000CC00CFA07FC4CEA060CC0F808C0466857
:100E5000A6430C79C4F30014944034434460C6683C
:100E6000570005FA07FC8C6826EA0C06BC403443A0
:100E7000C4604C68022C01D0122C13D1D40800EBB2
:100E80008404A346D4F8209054074FEAD46A0EFA9B
:100E90000AF629EA06090E6906FA0AF646EA09067A
:100EA000CBF8206004680E7924EA0C0406F00306EF
:100EB000BE40264306604C68E40056D52E4C26689A
:100EC00046F480462660246822F0030604F4804439
:100ED00000942A4C3444A446D4F808489607370FA7
:100EE0000EFA07F6B443264EB04201D1002615E0B3
:100EF000244EB04201D1012610E0234EB04202D16F
:100F000002260BE031E0214EB04201D1032605E07C
:100F10001F4EB04201D1042600E00726BE40264302
:100F2000CCF808681B4E34684F689C43FF0300D51B
:100F30001C433460174E361D34684F689C43BF0312
:100F400000D51C433460134E083634684F689C4308
:100F5000FF0200D51C4334600E4E0C3634684F68D7
:100F60009C43BF0200D51C433460521C102AFFF47E
:100F700051AFBDE8F88F0000443802400030014016
:100F8000000002400004024000080240000C024041
:100F900000100240003C0140426931EA020200D1E7
:100FA0000904816170470AB1816170470904FBE758
:100FB00001488068704700002000002002488168D6
:100FC0000278114481607047200000200B4810B562
:100FD000016841F400710160016841F480610160C1
:100FE000016841F480710160032000F08DF8002059
:100FF00000F006F800F03EF8002010BD003C024072
:1010000010B5014688B000221C2000F05DF81C20BD
:1010100000F04CF814480024016841F0010101601F
:10102000006805A900F001000690684600F018F974
:1010300000F036F90D494000B0FBF1F10C484FF0DB
:101040008042491E026040F2E732C0E90324C0E951
:10105000011400F0C1FD10B1012008B010BD04481A
:1010600000F000FEF9E700004038024040420F0067
:10107000280500200C4882B0016841F480410160DD
:10108000006800F4804000900748001F016841F0AC
:10109000805101600068002200F0805000900F2114
:1010A000901E02B000F010B844380240002809DB5E
:1010B00000F01F02012191404009800000F1E02072
:1010C000C0F8001170470000F0B40E4B1B680C46CE
:1010D000C3F30223C3F10705042D00D90425191D0C
:1010E000072901D2002300E0DB1E012606FA05F1E4
:1010F000491E214099409E40761E16403143F0BC67
:1011000001F009BF0CED00E0064900F00702086895
:101110004FF6FF03184040EA0220034A10430860DC
:10112000704700000CED00E00000FA052DE9F047E3
:101130000E46050065D0DFF81481D8F80000F7B23C
:1011400000F00F00B04207D288F80070D8F8000015
:1011500000F00F00B04254D128683D4C810712D5F1
:10116000400703D5206840F4E0502060287800074D
:1011700003D5206840F4604020602068A96820F012
:10118000F000084320602878C0072DD030496868F7
:101190000839012812D0022813D0032811D0096879
:1011A000890700292DDA216821F00301014321601C
:1011B000FFF7FEFE814641F2883A0EE00968890396
:1011C000EFE709688901ECE7FFF7F2FEA0EB090100
:1011D000514502D90320BDE8F0872068696800F016
:1011E0000C00B0EB810FEFD1D8F80010404601F0B1
:1011F0000F01B14207D90770006800F00F00B0423C
:1012000001D00120E7E72878400705D52068E96884
:1012100020F4E050084320602878000706D52068B5
:10122000296920F4604040EAC100206000F058F8CD
:101230002168084AC1F30311515CC840064908609F
:1012400006480068FFF7DCFE0020C4E7003C0240CF
:1012500008380240044300082C000020240000202D
:101260000F2202600C4A136803F003034360136803
:1012700003F0F0038360136803F4E053C360126863
:101280004FF4E05303EAD20202610448006800F020
:101290000F0008607047000008380240003C024020
:1012A0000448054900680968044AC1F38221515C79
:1012B000C84070472C000020083802401443000842
:1012C0000448054900680968044AC1F34231515C89
:1012D000C84070472C000020083802401443000822
:1012E000154810B5006810F00C02144813D04110D6
:1012F000042A0FD0082A0ED10F4C241F226823681D
:1013000002F03F025B0207D52068C0F38810A0FB03
:10131000010106E0084610BD2168C1F38811A1FB58
:1013200000010023FEF7B2FF2168C1F30141491C0F
:101330004900B0FBF1F010BD083802400024F40071
:101340002DE9F84F04006ED02078DFF83C93C007F9
:10135000A9F104054AD009F104000168C1F3810133
:10136000012908D00068C0F3810002280AD1D9F809
:101370000000400206D52868800337D56068002841
:10138000E1D033E06068B0F5803F10D0B0F5A02F19
:10139000286810D020F480302860286820F480204D
:1013A00028606068A8B1FFF703FE06460DE02868D4
:1013B00040F48030F4E740F480202860F7E700BF75
:1013C000FFF7F6FD801B642873D828688003F7D5E3
:1013D0000CE0FFF7EDFD064605E000BFFFF7E8FD76
:1013E000801B6428F0D828688003F7D42078DFF8C1
:1013F0009C8280074FF0000A3ED5A348001D01687B
:1014000011F00C0F08D00068C0F3810002280BD146
:10141000D9F80000400207D42868800716D5E06894
:10142000012800D112E02BE1E068B8B10120C8F832
:101430000000FFF7BDFD064605E000BFFFF7B8FD61
:10144000801B0228C0D828688007F7D52868216942
:1014500020F0F80040EAC10028600DE0C8F800A0C4
:10146000FFF7A6FD064604E0FFF7A2FD801B022859
:101470001FD828688007F7D42078000722D5824E2D
:1014800083486169703671B101210160FFF790FDF9
:10149000074604E0FFF78CFDC01B022809D830681E
:1014A0008007F7D50EE0C0F800A0FFF781FD0746E2
:1014B00005E082E0FFF77CFDC01B02287DD8306884
:1014C0008007F7D42078400768D5DFF8BCB1002743
:1014D0000BF13C0BDBF80000C0000BD4DBF8001074
:1014E00041F08051CBF80010DBF80000012700F03C
:1014F00080500090674E3068C00510D4306840F4CA
:1015000080703060FFF754FD009005E0FFF750FD5C
:101510000099401A022850D83068C005F6D55A4EB6
:10152000A0686C3601280FD00528306810D020F054
:1015300001003060306820F004003060A068B8B16D
:10154000FFF736FD00900FE0306840F00100F4E74F
:1015500040F004003060F7E7FFF72AFD0099411AD8
:1015600041F28830814266D830688007F4D50EE0B9
:10157000FFF71EFD009007E0FFF71AFD0099411AE2
:1015800041F28830814256D830688007F4D42FB1B8
:10159000DBF8001021F08051CBF80010A069C8B32F
:1015A0003949091D0968C1F3810102294AD002287D
:1015B000504607D0C8F8600000E03CE0FFF7F8FCB8
:1015C00004463BE04746C8F86000FFF7F1FC0646DA
:1015D00005E000BFFFF7ECFC801B02282BD8286831
:1015E0008001F7D4D4E907010843A16A2A4A4908CF
:1015F00002EB0141626A41EA8211084394F82C101F
:1016000040EA0161C9F8001001203866FFF7D0FCFC
:10161000044606E036E000BFFFF7CAFC001B0228C4
:1016200009D828688001F7D52CE000BFFFF7C0FC7F
:10163000001B022802D90320BDE8F88F286880012A
:10164000F4D41FE00128F7D0D9F80000E26900F4D3
:101650008001914214D1226A00F03F0191420FD1E2
:1016600047F6C071626A0140914209D1A26A00F452
:101670004031914204D1E16A00F07060884201D0AB
:101680000120D9E70020D7E7043802400000474294
:10169000800E4742007000400000FFFF2DE9FE432E
:1016A000044603200F4684F83400606C03285AD0A7
:1016B000B7F5805F57D04FF4006600254FF0806883
:1016C000B7421CD1009501950021206800F071FE01
:1016D000800121D46946204601F0F6F898BB0198B4
:1016E000400332D5B4F850000104206800F091FEA8
:1016F00048BB0221206822E0A06B284327E01FB1ED
:10170000A06B40F0006022E0009501950021206868
:1017100000F04FFE800101D53546EDE769462046D1
:1017200001F0D2F878B90198C0030ED5B4F8500092
:101730000104206800F06DFE28B90021206800F047
:10174000B4FE0028D8D00546D6E74546D4E7A063C6
:10175000A06B012558B121680C48886384F8345087
:101760000120BDE8FE83A06B40F08050EFE7211D13
:10177000D4E905060EC90097CDE90106206800F0FE
:101780001BFE84F834500020EBE70000FF0540000A
:10179000F0B5426E920F0A70426EC2F383624A70D5
:1017A000426EC2F301628A70426E120CCA70B0F8C7
:1017B0006420120A0A7190F864204A71826E120D38
:1017C000CA80826EC2F303420A72B0F86820C2F384
:1017D000C0324A72B0F86820C2F380328A72B0F820
:1017E0006820C2F34032CA72B0F86820C2F30032F7
:1017F0000A7300264E73426C4FF40075012462B1E7
:10180000012A3AD0026847499163816B41F08051C7
:10181000816380F834400120F0BDB0F86820C36EC9
:101820009205120D42EA93720A61C26EC2F3C2625D
:101830000A75C26EC2F302624A75C26EC2F34252A8
:101840008A75C26EC2F38242CA75C26EC2F3C232D8
:101850000A760A69521C42650B7E03F007039B1C43
:101860009A4042650B7A03F00F0704FA07F3836589
:101870005B0A5A43C0E917250EE090F86820C36E52
:101880009206920A42EA13420A610A69521C9202C3
:101890004265C0E91652056630F86C2FC2F38032FB
:1018A00001F8192F0288C2F3C6124A70027802F0BA
:1018B0007F028A704268D20FCA704268C2F34172D6
:1018C0000A714268C2F382624A714268C2F383526B
:1018D0008A714268C2F34052CA710E724268C2F302
:1018E00000424A728288C2F3C0328A728288C2F38E
:1018F0008032CA728288C2F340320A738288C2F38D
:1019000000324A738288C2F381228A738288C2F3CA
:101910000122CA730079C0F3460008744C74002099
:10192000F0BD0000FF05400070B504000ED094F833
:101930003400002518B92577204600F03BF8032035
:1019400084F83400204600F00BF808B1012070BD87
:10195000A5632563012084F83400002070BD0000D9
:10196000FEB50025044676200095CDE901502946B4
:101970000B460A46206800F01FFD08B10120FEBD9D
:101980000B4E46F8A05F206800F028FD0125356069
:10199000204601F07BF820B9204600F0FFFF002828
:1019A000EDD084F83450A16B0143A163E6E7000059
:1019B00000802542F0B587B0044614216846FEF742
:1019C000AFFC1D492068884233D11C4800240168BF
:1019D00041F400610160006800F400600590174860
:1019E0001438016841F004010160016801F004014C
:1019F0000591016841F0080101600068022500F0CE
:101A0000080005904FF4F850CDE9000502AA03261E
:101A10000C2782E8D00069460948FFF7F3F9042053
:101A2000CDE9000502AA694682E8D0000548FFF723
:101A3000E9F907B0F0BD0000002C01404438024035
:101A400000080240000C024070B5040005D00025DB
:101A5000A56294F8510010B106E0012070BD84F831
:101A60005050204600F030F8022084F851002068E1
:101A7000016821F040010160D4E901010843D4E983
:101A800003121143084361690843218B01F400717B
:101A90000843E1690843216A0843A16A08432168B1
:101AA0000860A069042101EA1040616A08432168C6
:101AB00048602068C16921F40061C1616565012049
:101AC00084F85100002070BDF0B587B004461421A1
:101AD0006846FEF725FC1C492068884232D11B4825
:101AE0000024016841F480410160006800F48040F6
:101AF000059016481038016841F004010160016842
:101B000001F004010591016841F0020101600068E3
:101B1000022500F0020005900C20CDE9000502AA84
:101B20000326052782E8D00069460948FFF76AF9CD
:101B3000B802CDE9000502AA694682E8D00005484E
:101B4000FFF760F907B0F0BD0038004040380240B0
:101B500000080240000402407047704770B590F8DA
:101B60003C20012A2CD0012480F83C40022280F83D
:101B70003D2003685A689D6822F070060A68324367
:101B80005A60104B02689A420ED0B2F1804F0BD0CF
:101B90000D4B9A4208D00D4B9A4205D00C4B9A42FD
:101BA00002D00C4B9A4204D1496825F080031943B6
:101BB000916080F83D40002180F83C10084670BDDF
:101BC000022070BD000001400004004000080040F9
:101BD000000C00400040014010B5040003D094F810
:101BE0003D0010B107E0012010BD002084F83C004A
:101BF000204600F00DF8022084F83D00211D2068E9
:101C000001F072F8012084F83D00002010BD0000B2
:101C100008B5114A01681148914208D1016841F0A4
:101C200002010160006800F00200009008BD0C4A4B
:101C30009142FBD1016841F004010160006800227B
:101C400000F00400009005211E20FFF73DFABDE8DA
:101C500008401E20FFF72ABA000400404038024026
:101C6000000800400168CA6842F00102CA600068CA
:101C7000816801F00701062903D0016841F00101E4
:101C80000160002070470168CA6822F00102CA6042
:101C90000068016A41F21112114207D1016A9210E3
:101CA000114203D1016821F0010101600020704759
:101CB00070B5044690F83C00012817D0012584F83F
:101CC0003C50022084F83D002068826822F07702B0
:101CD00022F47F4282600868502830D00DDC202832
:101CE0004DD005DC98B310283BD148E0022070BDF0
:101CF000302844D0402834D139E0602828D07028DA
:101D000006D0B0F5805F2CD0B0F5005F29D10AE095
:101D1000CB68D1E90121206801F032F820688168A0
:101D200041F0770109E0CB68D1E90121206801F099
:101D300027F82068816841F48041816011E0CA6819
:101D40004968206801F02EF85021206807E016E06D
:101D5000CA684968206801F036F86021206801F0FF
:101D600019F884F83D50002084F83C0070BDCA6822
:101D70004968206801F016F840212068EFE72268E2
:101D800001461046EBE7704770B5044600680169EC
:101D90004FF00005C943890715D4C168C9438907B5
:101DA00011D4E91E01610120207720688069800735
:101DB000204602D0FFF7E7FF04E000F098F8204645
:101DC00000F096F8257720680169C943490717D4C0
:101DD000C168C943490713D46FF0040101610220AF
:101DE00020772068806910F4407F204602D0FFF7FA
:101DF000CAFF04E000F07BF8204600F079F8257770
:101E000020680169C943090716D4C168C943090795
:101E100012D46FF008010161042020772068C069A6
:101E20008007204602D0FFF7AEFF04E000F05FF825
:101E3000204600F05DF8257720680169C943C9068E
:101E400017D4C168C943C90613D46FF010010161EA
:101E5000082020772068C06910F4407F204602D017
:101E6000FFF791FF04E000F042F8204600F040F850
:101E7000257720680169C943C90708D1C168C943EA
:101E8000C90704D1891E0161204600F033F820689B
:101E90000169C943090609D4C168C943090605D4C3
:101EA0006FF0800101612046FFF756FE206801694E
:101EB000C943490609D4C168C943490605D46FF02E
:101EC00040010161204600F039F820680169C943EA
:101ED00089060BD4C168C943890607D46FF0200175
:101EE00001612046BDE87040FFF737BE70BD704706
:101EF0007047000038B5044600680D49884210D18B
:101F0000002000900B486946406901F00BFD0098E5
:101F100038B109494FF080500860BFF34F8FBFF3CD
:101F20006F8F2068B0F1804F01D1FFF747F838BDBF
:101F3000000800400000002004ED00E0704770B58C
:101F4000040004D094F83900002510B106E0012007
:101F500070BD84F83850204600F022F8242084F820
:101F600039002068C16821F40051C160204600F0AA
:101F70003DFF2068016921F49041016120684169B9
:101F800021F02A0141612068C16841F40051C1601B
:101F9000E563202084F8390084F83A00002070BD01
:101FA00010B586B0044614216846FEF7B9F9134906
:101FB000206888421FD112480021026842F4003292
:101FC0000260006800F4003005900D481038026887
:101FD00042F001020260006800F0010005900C2050
:101FE00000900220CDE901010720CDE903106946E8
:101FF0000448FEF707FF06B010BD00000044004093
:102000004038024000000240FEE700007FB5002497
:1020100021480094019402941E4903940160012513
:102020004FF480310561C0E90114047680F8204046
:102030000903C1620526C6614910C460816280F847
:1020400030504461FEF75AFCCDE900450224694650
:1020500011480294FEF7F4FACDE9005469460E489F
:10206000FEF7EEFA04240320CDE9004069460A4851
:10207000FEF7E6FA0620CDE9000469460648FEF7B9
:10208000DFFA0720CDE9000669460348FEF7D8FAD3
:102090007FBD000000200140900000202DE9F043AA
:1020A00087B014216846FEF73BF93B4800240168DD
:1020B00041F004010160016801F00401059101682B
:1020C00041F080010160016801F080010591016823
:1020D00041F001010160016801F001010591016811
:1020E00041F002010160016801F0020105910168FF
:1020F00041F0080101600068284F00F008000590D9
:10210000002220213846FEF74EFFDFF894804EF281
:10211000F636002231464046FEF745FFDFF8849050
:10212000002240214846FEF73EFF4FF40050009049
:102130001D48CDE9010469464846FEF763FE31209B
:10214000CDE90004694648460294FEF75BFE202074
:1021500000900125CDE90154694638460394FEF705
:1021600051FECDE90054694640460294FEF74AFE0E
:102170000096CDE90154694640460394FEF742FEBD
:1021800040200090CDE90154694648460394FEF78B
:1021900039FE07B0BDE8F08330380240000002404D
:1021A0000004024000080240000021100C480B49C6
:1021B0004FF4802201604FF4827141600021816000
:1021C000C1600161C0E905121822C0E9072141621E
:1021D00081620A21C162FFF737BC0000003800406D
:1021E0005C01002010B586B00024134800940194CF
:1021F0000294039404940F49059401604AF210413B
:10220000C0E901144FF4FA71C0E903148461FFF7C7
:10221000E3FC4FF48050009069460748FFF748FD03
:102220002020CDE9040404A90348FFF797FC06B079
:1022300010BD000000040040B401002010B586B0BD
:1022400000241148009401940294039404940D49CD
:10225000059401602A21C0E90114C460046184610D
:10226000FFF7BAFC4FF48050009069460648FFF72C
:102270001FFD049404A904480594FFF76FFC06B001
:1022800010BD000000080040F4010020FEE700003F
:102290002DE9F0414FF400452F4C6E10AF10082887
:1022A00058D2DFE800F0040B181F26323E4B012203
:1022B00040212046FEF777FE002201E001220BE0DC
:1022C00029462046FEF76FFE002231462046FEF7E3
:1022D0006AFE00222CE0002240212046FEF763FE29
:1022E0000122EDE7002240212046FEF75CFE01229C
:1022F00005E0002240212046FEF755FE0022294637
:102300002046FEF750FE0122DFE700224021204652
:10231000FEF749FE002229462046FEF744FE012230
:1023200001E000220BE031462046FEF73CFE012290
:1023300039462046BDE8F041FEF735BE0122402176
:102340002046FEF730FE002229462046FEF72BFEEF
:102350000022E8E70022ABE70004024070B5084C19
:1023600005462078FFF794FF20783DB1401CC0B2AD
:102370002070072801D90020207070BD401EFBE7A7
:102380000000002070470A6842624A688262D1E910
:1023900002231A43D1E904310B43C16A1A4321F0E5
:1023A000F7011143C16200207047006800F003008C
:1023B000704708444069704770B50DF1100C114327
:1023C0009CE870002343194329434268314347F690
:1023D000FF639A430A434260002070BD10B5032199
:1023E00001600220FEF7FCFC002010BDD0F8800048
:1023F00070470A688260D1E901231A43D1E90331A9
:102400000B43C1681A436FF30B011143C1600020F5
:10241000704710B586B004463720CDE90010402043
:102420000290002003904FF480600490694620469B
:10243000FFF7DFFF41F288323721204600F026F90E
:1024400006B010BD10B504460A4886B001432920E5
:10245000CDE9001040200290002003904FF48060EE
:10246000049069462046FFF7C4FF204600F0C6F9F5
:1024700006B010BD0000108010B586B004461020D4
:10248000CDE9001040200290002003904FF48060BE
:10249000049069462046FFF7ACFF41F288321021D4
:1024A000204600F0F3F806B010BD10B586B0044623
:1024B0000620CDE9001040200290002003904FF448
:1024C0008060049069462046FFF793FF41F288320E
:1024D0000621204600F0DAF806B010BD30B585B010
:1024E00000240546009401944FF480600294CDE9E5
:1024F000034069462846FFF77CFF0B484FF4FA512A
:102500000068B0FBF1F041F288314843401E03D22D
:102510004FF0004005B030BD696B0906F6D5C52007
:10252000A8632046F6E700002C00002070B585B0B7
:1025300004464FF4D570009001A9082040250026DC
:1025400081E86100C001049069462046FFF751FF11
:1025500012484FF4FA510068B0FBF1F041F28831B3
:102560004843401E03D24FF0004005B070BD616B80
:1025700011F0450FF5D00905F3D4606B400701D584
:10258000042003E0606BC00702D00120A063ECE7E9
:10259000606B400600D5A5633046E6E72C000020BE
:1025A00010B586B004460720CDE9002040200290F7
:1025B000002003904FF48060049069462046FFF7A6
:1025C00018FF41F288320721204600F05FF806B07C
:1025D00010BD10B586B0044600210220CDE90010E0
:1025E000C020CDE902014FF4806004906946204686
:1025F000FFF7FFFE204600F0D9F806B010BD10B579
:1026000086B004460920CDE90010C02002900020C9
:1026100003904FF48060049069462046FFF7E9FE7E
:10262000204600F0C3F806B010BD10B586B00446D1
:1026300000213320CDE900104020CDE90201000146
:10264000049069462046FFF7D4FE41F288323321D8
:10265000204600F01BF806B010BD30B585B00C4622
:10266000054600210320CDE900104020CDE90201FC
:102670000001049069462846FFF7BBFE224603216D
:10268000284600F0DDF805B030BD0000454B10B520
:102690001B684FF4FA54B3FBF4F353435B1E02D2AE
:1026A0004FF0004010BD426B12F0450FF6D01205FE
:1026B000F4D4426B520703D504218163084610BD50
:1026C000426BD20702D00121816305E0C5228263FB
:1026D0000269D2B28A4201D0012010BD0021FFF769
:1026E00068FE3149084201D1002010BD002802DAFD
:1026F0004FF0007010BD410001D5402010BD810099
:1027000001D5802010BDC10002D54FF4807010BDEE
:10271000010102D54FF4007010BD410102D54FF404
:10272000806010BDC10102D54FF4006010BD0102F0
:1027300002D54FF4805010BD410202D54FF4005035
:1027400010BD810202D54FF4804010BDC10202D5F8
:102750004FF4004010BD410302D54FF4003010BDCE
:10276000810302D54FF4802010BDC10302D54FF480
:10277000002010BD010402D54FF4801010BD4104AB
:1027800002D54FF4001010BD810402D54FF4800033
:1027900010BD000702D54FF4000010BD4FF480308B
:1027A00010BD00002C00002008E0FFFD12494FF48E
:1027B000FA520968B1FBF2F141F288325143491EE5
:1027C00002D24FF000407047426B12F0450FF6D036
:1027D0001205F4D4416B490703D5042181630846EF
:1027E0007047416BC90703D00121816308467047D8
:1027F000C5218163002070472C0000200F494FF451
:10280000FA520968B1FBF2F141F288325143491E94
:1028100002D24FF000407047426B12F0450FF6D0E5
:102820001205F4D4416B490703D50421816308469E
:102830007047C52181630020704700002C000020F4
:1028400030B5204B4FF4FA541B68B3FBF4F341F25C
:10285000883463435B1E02D24FF0004030BD446BAE
:1028600014F0450FF6D02405F4D4436B5B0703D571
:1028700004218163084630BD436BDB0702D0012190
:10288000816303E00369DBB28B4201D0012030BDDC
:10289000C52181630021FFF78CFD10F4604F04D047
:1028A000410406D54FF4005030BD000C10800020CC
:1028B00030BD000402D54FF4805030BD4FF480305D
:1028C00030BD00002C0000202DE9F04F89B00D46EE
:1028D0000446FEF76DFB00268346009601963746B8
:1028E00008212068FFF7C8FD002834D1B4F8500053
:1028F00001042068FFF78DFD00282CD1401E4FF009
:102900000808CDE9020830204FF00209CDE904099A
:102910000120CDE9067002A92068FFF734FD206888
:10292000FFF783FE002816D1EA4640F22A472068C6
:10293000416B394212D1416B890204D5FFF756FD34
:102940004AF82600761CFEF733FBA0EB0B00401C78
:10295000EDD14FF0004009B0BDE8F08F416B0907A1
:1029600003D5C0F838800820F5E7416B890703D507
:10297000C0F838900220EEE7416B890603D520218C
:1029800081630846E7E740F23A518163019800BA53
:102990002860009800BA68600020DCE710B590B0AD
:1029A00004460120ADF838002068FFF7FEFC00283F
:1029B00054D0606C032842D02068FFF70AFE00283C
:1029C0004AD100212068FFF7F4FC606704212068E9
:1029D000FFF7EFFCA06708212068FFF7EAFCE0673B
:1029E0000C212068FFF7E5FCC4F88000606C032828
:1029F00025D00EA92068FFF730FE00282CD1606C8E
:102A000003281CD0BDF83800206501042068FFF7BA
:102A1000F6FD002820D100212068FFF7CAFC60667F
:102A200004212068FFF7C5FCA06608212068FFF795
:102A3000C0FCE0660C212068FFF7BBFC2067042186
:102A40002068FFF7B6FC000DE06403A92046FEF7FE
:102A50009FFE30B14FF0805010B010BD4FF080603D
:102A6000FAE7B4F85000002302042068FFF798FD4D
:102A70000028F1D104F1100007C88DE8070094E8A0
:102A80000F00FFF799FC0020E6E700002DE9F84F62
:102A90000026044600963546B0460068FFF71EFD46
:102AA000002827D12068FFF741FD4FF0805B4FF0F1
:102AB00001094FF6FF7748B1A6642068FFF70EFDC5
:102AC000002817D1A06C012802D020E0C4F848905B
:102AD00000212068FFF79DFC58B918E0002120680C
:102AE000FFF797FC002805D151462068FFF7AAFCA4
:102AF00010B15846BDE8F88F00212068FFF759FC57
:102B000005464FEAD0780098401C009002E0DFF8BC
:102B10002CA00098B84202D2B8F1000FDED0009885
:102B2000B84202D34FF08070E4E7680002D5C4F8E1
:102B3000449000E066640020DCE70000000010C163
:102B40008CB0142105A8FDF7EBFB05226946174858
:102B5000FDF754FF4FF0FF386E4605AD474641463E
:102B6000012000F089FDB846114F002456F82410CA
:102B700055F82400081A00D54042142809DD8DF8C4
:102B80002840ADF82A10002342460AA9F86901F04E
:102B9000BDF856F8240045F82400641C64B2052CE6
:102BA000E4DB4FF47A7000F07BFAD7E79000002066
:102BB00000000020044C20212046FEF7EDF9012002
:102BC00000F06EFAF7E70000000002400120FFF776
:102BD000C5FB0A20FDF71EFDF8E74FF47A74204686
:102BE00000F05EFAFBE74FF47A74204600F058FAE2
:102BF000FBE74FF47A74204600F052FAFBE700003E
:102C000010B5502080F31188BFF34F8FBFF36F8F43
:102C100001F0CCF918B104494FF080500860002051
:102C200080F3118810BD000004ED00E030B593B0D2
:102C300030216846FDF774FB14210CA8FDF770FBEA
:102C40001A480024016841F080510160006800F0DA
:102C5000805011901648016821F4404141F4004130
:102C600001600068022500F44040119001200390AB
:102C70001020009506950490CDE907404FF4A87008
:102C8000099004200A9007200B906846FEF758FB35
:102C90000F20CDE90C054FF4A050CDE90E400221E4
:102CA0000CA81094FEF742FA13B030BD4038024031
:102CB000007000400548016841F47001016003495B
:102CC0004FF00060803908607047000088ED00E038
:102CD0000148FFF759B80000280500200148FFF718
:102CE00053B80000F4010020F0B502681D4B1E4CE3
:102CF0009F031E4D1E4E984207D0B84205D0A042F9
:102D000003D0A84201D0B04204D122F0700C4A682E
:102D100042EA0C02984210D0B8420ED0A0420CD029
:102D2000A8420AD0B04208D0124CA04205D0124CA2
:102D3000A04202D0114CA04203D122F44074CA68D0
:102D400022434C6922F08002224302608A68C262F8
:102D50000A688262984201D10969016301214161D7
:102D6000F0BD0000000001400004004000080040E9
:102D7000000C004000400140004401400048014078
:102D800010B5846842EA032224F47F440A432243B4
:102D9000826010BD826822F070020A4342F007018F
:102DA0008160704710B5036A046A24F0010404626C
:102DB000846924F0F00444EA021423F00A020A436E
:102DC0008461026210BD10B5036A23F01003036230
:102DD0008369046A23F4704343EA023224F0A003B7
:102DE00043EA01118261016210BD00002DE9F0414A
:102DF000044600680169E26821F440511143016111
:102E00002169A068E26908436169114308432168A8
:102E1000CA6849F20C639A430243CA602068416958
:102E2000A26921F4407111434161E06919276425C9
:102E30003226B0F5004F354A354920684FF000087A
:102E400006D0884201D0904236D1FEF739FA35E0FB
:102E5000884201D0904202D1FEF732FA01E0FEF73B
:102E60001FFA61684A18A0FB070148EB0803FDF749
:102E70000DFA0146B0FBF5F00201B1FBF5F06FF081
:102E80001803584301EB800006EBC000B0FBF5F0DF
:102E900000F0F80002EB4002B1FBF5F0584301EB03
:102EA000800006EBC000B0FBF5F000F007002168E1
:102EB00010448860BDE8F081FEF7F2F961688B0F7D
:102EC0008A00A0FB0701FDF7E1F90146B0FBF5F030
:102ED0006FF01802504301EB800006EB0010B0FBCE
:102EE000F5F000F0F002B1FBF5F002EB0012B1FBDF
:102EF000F5F06FF01803584301EB800006EB00106B
:102F0000B0FBF5F000F00F00D1E700000014014025
:102F100000100140FEE70907090E002804DB00F15C
:102F2000E02080F80014704700F00F0000F1E0206E
:102F300080F8141D704702E008C8121F08C1002A5B
:102F4000FAD170477047002001E001C1121F002A2A
:102F5000FBD17047B0B0FEF739F8FFF767FEFFF717
:102F60009DF845480024016841F480010160006833
:102F7000224600F480002E9005213820FEF7A4F8A8
:102F80003820FEF793F8FFF741F8FFF70FF93C48B8
:102F90003A4901604FF4E131C0E901140C21C460E9
:102FA000C0E904418461C461FEF7C9FF3648354970
:102FB000C0E900148460C460046144618461FEF768
:102FC000B3FC4FF400613048FEF768FBFFF70AF9E5
:102FD000FFF734F92D490DF1A80C0FC98CE80F004B
:102FE00000212AA800F06BF8294C28491C22E06136
:102FF00010316846FDF77BF90021684600F072F851
:10300000224960601C222C3107A8FDF770F90021CD
:1030100007A800F067F81D49A0601C2248310EA8DF
:10302000FDF765F900210EA800F05CF81749E06093
:103030001C22643115A8FDF75AF9002115A800F0EB
:1030400051F8124920611C2280311CA8FDF74FF96C
:1030500000211CA800F046F80C4960611C229C313C
:1030600023A8FDF744F9002123A800F03BF8A06154
:1030700000F020F8FEE70000303802400044004035
:1030800034020020002C0140D800002044420008F7
:103090000000002001460020842900D0C81C704791
:1030A0000A21B0FBF1F010B500B9012000F006FCD8
:1030B000002010BD10B500F0A7FC002010BD38B5F1
:1030C000D0E9011204683AB1C3682BB10020009026
:1030D000204600F0A3FD38BD2046BDE83840002260
:1030E00000F078BD7FB50D4604464169B0F908008F
:1030F00081B1A16971B1FFF7CDFFD4E905128DE867
:103100000700D4E900102B46226900F016FF039057
:1031100004B070BDFFF7BEFF03A9CDE90001208A0E
:103120002B4682B2D4E9001000F0DAFE012801D06B
:103130000020EDE70398EBE72DE9F041184C0F462E
:10314000054666692068001D00F0CAFA38B9206893
:1031500090F82C1001208840A1698143A161681C6E
:1031600007D137B12168BDE8F0410E48091D00F0D4
:10317000FBBA20683544B5424560216805D2A06895
:10318000BDE8F041091D00F0D7BA6068091D00F0E4
:10319000D3FA206B854200D22563BDE8F0810000A0
:1031A00030000020300600202DE9F041054600F0F7
:1031B000E7FA2E4C2069401C206120682C4F10B18A
:1031C000E06940B32DE025602069012829D100265F
:1031D00006EB860007EB800000F0A0FA761C062EB6
:1031E000F6D32348783000F099FA21488C3000F06B
:1031F00095FA1F48A03000F091FA1D48B43000F055
:103200008DFA1B48C83000F089FA194878306060A0
:103210001430A06005E02068E96AC06A884200D8DE
:103220002560E06A401CE062E96A0120A2698840EA
:103230001043A06101EB810007EB8000291D00F025
:1032400093FA00F0BDFAE06900280CD02068E96A22
:10325000C06A884207D207494FF080500860BFF328
:103260004F8FBFF36F8FBDE8F0810000300000206A
:103270006805002004ED00E02DE9F041856B17465C
:1032800004460026026C82B1C7B1E068FDF72FF852
:10329000E168206C091AE1602268914202D2A168BB
:1032A000081AE060022F16D017E02068A8B9A068BD
:1032B00000F0E0FE06460020A0600EE06068FDF72A
:1032C00016F8216C606808446060A168884204D3E5
:1032D0002068606001E005B16D1E6D1CA56330467D
:1032E000BDE8F08110B5044690F8510058B10128AE
:1032F0000CD002280FD0502080F31188BFF34F8FDD
:10330000BFF36F8FFEE7206B00F06EFA2046BDE83A
:10331000104000F069BA10BD10484FF470514207D8
:1033200006D0C01D0D4920F00700411AC1F57051AB
:103330000B4A00230144C2E900030839103A21F086
:10334000070111604B600B600B1AC0E9001393601A
:103350004FF000405360D0607047000044060020EA
:103360007C000020144E154CA6F1B4074FF0805895
:10337000DFF84C9012E000BF00F002FAF068C56878
:10338000281D00F0ADF92069401E2061E068401E54
:10339000E06000F015FA2846FFF7A4FFE068002877
:1033A000EAD138680128F9D9C9F80080BFF34F8FF6
:1033B000BFF36F8FF2E700001C06002030000020F2
:1033C00004ED00E00346009829B10260C0E90F3126
:1033D000012100F057BC0060F8E72DE9F0479A465C
:1033E000DDE9098481466FF00303206B03EB820261
:1033F0001044089E20F00707780707D0502080F37C
:103400001188BFF34F8FBFF36F8FFEE7002561B1C7
:10341000002023180A5C83F834200A5C12B1401C97
:103420001028F6D384F8435001E084F83450062E77
:1034300000D30526E662C4E91165201D00F079F984
:1034400004F1180000F075F92461C6F10600646209
:10345000A061E56484F8505052464946384600F071
:10346000F5F82060B8F1000F01D0C8F80040BDE8C1
:10347000F087000030B5114900E011460A68824229
:10348000FBD34B685C18844203D140681844486001
:10349000084643681C18944209D1084C103C246823
:1034A000A24209D052681A4442600A681268026057
:1034B000814200D0086030BD0460F9E77C00002044
:1034C00006484168096829B14168C968C9684968FE
:1034D000016370474FF0FF31FAE700003000002031
:1034E00008484068401C4FF0500080F3118804D019
:1034F000BFF34F8FBFF36F8FFEE7BFF34F8FBFF365
:103500006F8FFEE7840000202DE9F041044600F0B3
:1035100037F994F9455004F1240609E0606A48B18E
:10352000304600F0F3FD08B100F0F6F96D1E6DB203
:10353000002DF3DC4FF0FF3684F8456000F040F9D1
:1035400000F01EF994F9445004F1100709E02069D5
:1035500048B1384600F0DAFD08B100F0DDF96D1E23
:103560006DB2002DF3DC84F84460BDE8F04100F05A
:1035700027B900002DE9F0410546002700F07AFA4E
:10358000314E306808B9FFF7C7FEF06805424BD1ED
:10359000C5B3083568070ED005F00700C0F1080074
:1035A0000544680707D0502080F31188BFF34F8F80
:1035B000BFF36F8FFEE72DB37068854234D8224881
:1035C000103001460C6801E020460C466168A942B3
:1035D00002D221680029F7D131688C4224D00768D3
:1035E0002168016060680837411B10290FD96019F4
:1035F000420708D0502080F31188BFF34F8FBFF3EC
:103600006F8FFEE710E041606560FFF733FF616890
:103610007068401A7060B268904200D2B060F06882
:1036200001430020C4E9000100F0AAFD780707D09B
:10363000502080F31188BFF34F8FBFF36F8FFEE7E9
:103640003846BDE8F08100006C00002010B5031F73
:103650004FF080741C601B1F21F001011960191FBD
:10366000044B0B6014390A60091F6FF002024438E2
:103670000A6010BDE134000870B50C46064600F043
:103680007FF8154D2868C06C80B92968012081F841
:1036900050005CB101212046FFF74EFD0F494FF06D
:1036A00080500860BFF34F8FBFF36F8F00F088F832
:1036B00000F066F82868C46C002034B116B129689F
:1036C000C86402E02A68611ED164296881F850004C
:1036D00000F076F8204670BD3000002004ED00E0D8
:1036E000D0E9013201699A60D0E901235A604A6841
:1036F000824201D182684A60002202610868401E4D
:103700000860086870470000034B036003F1540031
:103710000860802010607047D402002000F108018A
:103720004FF0FF32C0E90112C16001610021016068
:10373000704700210161704730B50B685A1C02D0F8
:1037400000F1080202E0026904E02246546825689C
:103750009D42FAD953684B6099608A605160086154
:103760000168491C016030BD42684A6093688B6003
:1037700093685960916008610168491C0160704755
:10378000502080F31188BFF34F8FBFF36F8F0A492A
:103790004868401C486001280CD10848006810F0B7
:1037A000FF0F07D0502080F31188BFF34F8FBFF376
:1037B0006F8FFEE7704700008400002004ED00E0FA
:1037C0000849486828B1401E486001D180F311883B
:1037D0007047502080F31188BFF34F8FBFF36F8F76
:1037E000FEE700008400002070B5002827D0144DAB
:1037F000A0F108046168E868014207D1502080F315
:103800001188BFF34F8FBFF36F8FFEE722683AB185
:10381000502080F31188BFF34F8FBFF36F8FFEE707
:103820008143616000F026F9606869680844686057
:103830002046FFF71FFEBDE8704000F0A1BC70BD40
:103840006C0000204FF0E0200021016181610549FA
:1038500064220968B1FBF2F1491E4161072101614F
:10386000704700002C00002010B5FCF7F9FC11494E
:1038700010280ED300F1E02090F8F0030A7890426F
:1038800007D2502080F31188BFF34F8FBFF36F8FA3
:10389000FEE709480068896800F4E060884207D9BB
:1038A000502080F31188BFF34F8FBFF36F8FFEE777
:1038B00010BD0000840000200CED00E010B50200F7
:1038C00014D00F48806B38B1502080F31188BFF3BB
:1038D0004F8FBFF36F8FFEE700F0CCF8002110464A
:1038E000FFF72AFC00F04CFC002807D105494FF0F7
:1038F00080500860BFF34F8FBFF36F8F10BD000083
:103900003000002004ED00E002498A6A0260496943
:103910004160704730000020014901204862704733
:10392000300000202DE9F0418846040015D0FFF753
:103930009BFF5020EFF3118680F31188BFF34F8F68
:10394000BFF36F8F94F85000022184F85010E16C9F
:10395000491CE164012808D025E0502080F311883B
:10396000BFF34F8FBFF36F8FFEE7A06A38B15020CF
:1039700080F31188BFF34F8FBFF36F8FFEE7144DB5
:10398000A86B012798B104F118011248FFF7ECFE6B
:10399000E06A2968C96A884205D9B8F1000F01D0E8
:1039A000C8F800706F6286F31188BDE8F081201DB1
:1039B000FFF796FEE16AAA6907FA01F01043A861D1
:1039C00001EB81000349A03901EB8000211DDDE7F7
:1039D000300000200806002010B50C4650B10949FF
:1039E00009681831FFF7A8FE2046BDE81040012104
:1039F000FFF7A2BB502080F31188BFF34F8FBFF3B6
:103A00006F8FFEE73000002010B586B000240394CD
:103A100005AA04A903A80494FFF776FEDDE90301D3
:103A20000094CDE9011000230EA11048059A00F082
:103A300084FA0F490028486311D0502080F3118880
:103A4000BFF34F8FBFF36F8F4FF0FF30086301203C
:103A5000C8614C6106B0BDE8104000F041B806B046
:103A600010BD000049444C450000000065330008CB
:103A7000300000200248816B491C816370470000C0
:103A8000300000201448816B11B101214162704760
:103A9000002141628169B1FA81F1C1F11F0101EB9D
:103AA00081020E4951F822306BB101EB820101F124
:103AB00008034A6852684A609A4201D152684A60D3
:103AC000D16801607047502080F31188BFF34F8F99
:103AD000BFF36F8FFEE70000300000206805002074
:103AE0001CB537480168374A914207D1502080F30E
:103AF0001188BFF34F8FBFF36F8FFEE70068314926
:103B0000491E884207D1502080F31188BFF34F8FA0
:103B1000BFF36F8FFEE72C4908780190FF200870F3
:103B200008788DF800009DF800009DF8002000F056
:103B3000F000904207D0502080F31188BFF34F8FE0
:103B4000BFF36F8FFEE79DF80000204B00F05000A0
:103B500018700720986005E09DF8002052008DF84D
:103B60000020401E9DF800201206F5D4986003281E
:103B700007D0502080F31188BFF34F8FBFF36F8FB2
:103B8000FEE74FF440709860019808700C482030B0
:103B9000016841F470010160016841F07041016009
:103BA000FFF750FE00205860FCF722FB0848016830
:103BB00041F040410160FCF707FB00201CBD000004
:103BC00000ED00E071C20F4100E400E0840000203D
:103BD00034EF00E0F8B517460E46050014D0DEB10C
:103BE00005FB06F04830FFF7C5FC04000AD00020B2
:103BF00084F8460004F148023B46314628460094CA
:103C0000FFF7E0FB2046F8BD502080F31188BFF39A
:103C10004F8FBFF36F8FFEE70020E3E738B5049DB9
:103C200018B153B1CAB181B120E0502080F311889E
:103C3000BFF34F8FBFF36F8FFEE7502080F31188E3
:103C4000BFF34F8FBFF36F8FFEE7502080F31188D3
:103C5000BFF34F8FBFF36F8FFEE739B1502080F372
:103C60001188BFF34F8FBFF36F8FFEE748241C46C8
:103C7000012384F846302B460094FFF7A3FB20462F
:103C800038BD000070B50D46040025D0FFF778FD63
:103C9000D4E90F20216802FB0011A1600021A1637B
:103CA000216861600A46D4E90F01401E00FB012132
:103CB000E16021464FF0FF3001F8440F487004F1F5
:103CC00010008DB1FFF72AFD04F12400FFF726FD57
:103CD000FFF776FD012070BD502080F31188BFF3FF
:103CE0004F8FBFF36F8FFEE721690029F0D000F0FE
:103CF0000DFA0028ECD004494FF080500860BFF363
:103D00004F8FBFF36F8FE3E704ED00E02DE9FF472E
:103D100082B01D468A464FF00008040003D0BAF175
:103D2000000F08D011E0502080F31188BFF34F8FAF
:103D3000BFF36F8FFEE7206C38B1502080F31188FD
:103D4000BFF34F8FBFF36F8FFEE7022D0AD1E06BF9
:103D5000012807D0502080F31188BFF34F8FBFF3A5
:103D60006F8FFEE700F014F93F4F4FF000094FF05E
:103D7000805648B9049838B1502080F31188BFF3B9
:103D80004F8FBFF36F8FFEE7FFF7FAFCA06BE16B7D
:103D9000884207D3022D05D00498D0B1B8F1000FA6
:103DA0001AD01EE02A4651462046FFF765FA616A9E
:103DB00019B104F1240000F0A9F920B13E60BFF36D
:103DC0004F8FBFF36F8FFFF7FBFC012006B0BDE8FC
:103DD000F087FFF7F5FC22E06846FFF795FD4FF00E
:103DE0000108FFF7EDFCFFF745FEFFF7C9FC94F96A
:103DF0004400401C01D184F8449094F94500401CD3
:103E000001D184F84590FFF7DBFC04A9684600F077
:103E10002DF830B12046FFF777FB00F0B1F9002014
:103E2000D4E7FFF7ADFCA06BE16B884213D1FFF73D
:103E3000C7FC04F110000499FFF7CEFD2046FFF700
:103E400063FB00F09DF900289ED13E60BFF34F8FC9
:103E5000BFF36F8F98E7FFF7B3FC2046FFF754FBE3
:103E600000F08EF990E7000004ED00E02DE9F0414C
:103E70000C46050011D0C4B1FFF782FC174B5A69FC
:103E80006E682068911B471C17D02F689B6A9F4261
:103E900019D0964217D8012410E0502080F31188E1
:103EA000BFF34F8FBFF36F8FFEE7502080F3118871
:103EB000BFF34F8FBFF36F8FFEE70024FFF780FC47
:103EC0002046BDE8F081884205D9401A2060284686
:103ED000FFF71AFDF1E700202060DCE7300000204A
:103EE0002DE9FF5F8346DDE90E87994616468A462F
:103EF0009000FFF73FFB05001CD05420FFF73AFB72
:103F0000040014D00020256384F85100CDE902405C
:103F1000CDE900874B46324651465846FFF75DFAD9
:103F20002046FFF741F9012004B0BDE8F09F284684
:103F3000FFF75AFC4FF0FF30F6E7F0B585B0DDE94A
:103F40000B640A9DA6B1DCB15427009726630226B4
:103F500084F85160002604AFCDE90246CDE9005750
:103F6000FFF73BFA2046FFF71FF9049805B0F0BDB4
:103F7000502080F31188BFF34F8FBFF36F8FFEE7A0
:103F8000502080F31188BFF34F8FBFF36F8FFEE790
:103F90000548C16919B1806B18B100207047012034
:103FA0007047022070470000300000202DE9F041EA
:103FB0002E4C0027A06B40B1206A401C2062606A32
:103FC00000B101273846BDE8F0816669761C66615C
:103FD00013D16068006838B1502080F31188BFF3B6
:103FE0004F8FBFF36F8FFEE76068A1686160A060CC
:103FF000A06A401CA062FFF763FA206BDFF87080B4
:10400000864209D36068006880B16068C068C5688E
:10401000686886420DD220632068C06A00EB800188
:1040200058F821000128CAD90127C8E74FF0FF300E
:10403000F1E7281DFFF754FBA86A18B105F1180035
:10404000FFF74EFBE86A0121A26981401143A1619B
:1040500000EB800108EB8100291DFFF785FBE86A72
:104060002168C96A8842CDD30127CBE73000002000
:104070006805002070B504004FF0000140D0214DCC
:104080002868844207D0502080F31188BFF34F8FF7
:10409000BFF36F8FFEE7A06C38B1401EA064636C65
:1040A000E26A9A422CD040B12AE0502080F3118875
:1040B000BFF34F8FBFF36F8FFEE7201DFFF710FB9D
:1040C000114A012150B9E06A00EB800352F8233015
:1040D00023B9AB6901FA00F08343AB61606CE06225
:1040E000C0F10600A061E06AAB6981401943A96193
:1040F00000EB800002EB8000211DFFF735FB012162
:10410000084670BD30000020680500202DE9F04110
:10411000C068C468ACB104F118000746FFF7E0FAC4
:10412000154DA86B0126A0B139461448FFF71CFBBA
:10413000E06A2968C96A88421CD901206E62BDE81C
:10414000F081502080F31188BFF34F8FBFF36F8F42
:10415000FEE7201DFFF7C4FAE16AAA6906FA01F03A
:104160001043A86101EB81000449A03901EB8000F4
:10417000211DDBE70020E2E73000002008060020D8
:104180002DE9F0472C4D00242746A86B38B1FFF7E6
:10419000F7FAA86B401EA863A86B40B146E0502018
:1041A00080F31188BFF34F8FBFF36F8FFEE729694C
:1041B000224E0120D1B3A6F1A00980463068E8B1B3
:1041C000F068C46804F11800FFF78AFA201DFFF7B1
:1041D00087FAE06AAA6908FA00F11143A96100EBC5
:1041E000800109EB8100211DFFF7BEFAE06A296812
:1041F000C96A8842E2D3C5F82480DFE70CB1FFF733
:104200005FF92C6A44B14646FFF7D0FE00B16E62FA
:10421000641EF9D100202862686A38B10849012774
:1042200038070860BFF34F8FBFF36F8FFFF7C8FAEF
:104230003846BDE8F0870000300000200806002066
:1042400004ED00E00A00000004000000000000008F
:104250000000000050430008B52B000800000000DB
:1042600000000000800000000000000000000000CE
:104270002C430008412B0008FFFF00000000000055
:10428000800000000000000000000000344300082F
:10429000DB2B0008FEFF0000000000008000000093
:1042A00000000000000000003C430008E72B00086D
:1042B000FEFF000000000000800000000000000081
:1042C000000000001C430008CD2B00080200000085
:1042D000000000008000000000000000000000005E
:1042E00044430008F32B0008000000000000000019
:1042F0008000000000000000000000000006101612
:104300000006101600000000000000000102030477
:1043100006070809000000000102030444696769F8
:1043200074616C5F494F5F5461736B004164635407
:1043300061736B004C65645461736B004C6F675420
:1043400061736B004D61696E5461736B0000000016
:1043500064656661756C745461736B007C4300081E
:104360000000002090000000362F00080C440008D8
:1043700090000020B8450000462F00080000000013
:10438000000000000000000000000000000000002D
:10439000000000000000000000000000010000001C
:1043A00010000000000000000024F40000000000E5
:1043B00000000000000000000000000000000000FD
:1043C00000000000000000000000000000000000ED
:1043D00000000000000000000000000000000000DD
:1043E00000000000000000000000000000000000CD
:1043F00000000000000000000000000000000000BD
:0C44000000000000AAAAAAAA0000000008
:040000050800019559
:00000001FF
